:020000040800F2
:10000000002000109D7500088171000883710008B0
:1000100085710008877100088971000800000000E0
:1000200000000000000000000000000085680008DB
:100030008B710008000000002D680008F95E0008C0
:1000400075770008797700087D77000881770008C8
:1000500085770008897700088D7700089177000878
:1000600095770008997700089D770008A177000828
:10007000A5770008A9770008AD770008B1770008D8
:10008000B5770008B9770008BD770008C177000888
:10009000C5770008C9770008CD770008D177000838
:1000A000D57700088D710008D9770008DD77000842
:1000B000E1770008E5770008E9770008ED770008A8
:1000C000F1770008F5770008F9770008FD77000858
:1000D0000178000805780008977100080978000881
:1000E0000D780008117800081578000819780008C4
:1000F0001D78000821780008257800082978000874
:100100002D78000831780008357800083978000823
:100110003D780008417800084578000849780008D3
:100120004D78000851780008557800085978000883
:100130005D78000861780008657800086978000833
:100140006D780008717800087578000879780008E3
:100150007D78000881780008857800088978000893
:100160008D78000891780008957800089978000843
:100170009D780008A1780008A5780008000000001C
:10018000A9780008AD7800082DE9F0439FB000BFC2
:1001900065A6269CDFF8E88A8DF83B400291002492
:1001A0000B944FF0FF37044691461D460AE019F8BC
:1001B000011B0298A0470028029000F0A1800B9834
:1001C000401C0B9099F8000050B12528EFD1002178
:1001D0000022059106920791089209910A9203E084
:1001E0000B98A5E041F0010119F8010F2028F9D082
:1001F00023280CD02B2804D02D2805D0302809D056
:1002000080E041F00201EFE741F00401ECE741F04A
:100210000801E9E741F01001E6E70D920AE00D98C8
:10022000404505DA00EB800002EB4002303A0D92C7
:1002300009F1010999F80020A2F130000A28EED353
:1002400099F800002E2818BF0C9726D119F8010F35
:100250002A2808D12868286009F1010950F8042BE0
:1002600028600C9219E02D280CBF09F1010900202B
:1002700000220C920BE040B90C9A424505DA02EBE1
:10028000820203EB4203303B0C9309F1010999F818
:100290000030A3F130020A2AEDD3ADF83810304611
:1002A00099F8001000F0A0FE08B119F8010B8DF8C4
:1002B0003A009DF83A00682805D199F800006828AE
:1002C0000CD1622106E06C2804BF99F800006C286C
:1002D00004D171218DF83A1009F1010910A8049098
:1002E0002A4619F8013B6946204600F061F838B902
:1002F00010AA6946204600F091F900287FF562AF08
:10030000384615E02A2888D12A682A6052F8040B5A
:100310002A6000280D9003D540420D9041F0040161
:1003200009F101098CE70000686A6C747A4C0000DE
:100330001FB0BDE8F083622820D0682811D06A2859
:1003400003D06C2827D0712825D10868C01D20F063
:1003500007000860D0E900230830086019461046FD
:100360007047002A0A680A60106803D0121D0A60EC
:1003700000B217E0121D0A6080B217E0002A0A6876
:100380000A60106803D0121D0A6040B20AE0121D14
:100390000A60C0B20AE0002A0A680A60106803D046
:1003A000121D0A60C1177047121D0A6000217047B4
:1003B00070B51C460D46B4F125002E69114600F0BB
:1003C0001B811C386AD0001F022867D9133843D01C
:1003D000093863D0801E16D0401E1ED0401E022851
:1003E0005CD9001F19D0401F00F08380401E33D01D
:1003F000401E00F0CD80C01E00F0DC80801E2BD09F
:10040000C01E29D0FEE06869421C6A610A680A6061
:1004100052F8043B0A603354FEE095F83A0001229A
:10042000FFF789FFC5E900010023994204DA6869F2
:10043000411C69612D220DE0288F810704D5686970
:10044000411C69612B2205E0C00722D56869411C67
:100450006961202232541CE095F83A000022FFF72F
:100460006AFFC5E9000195F83800010711D5D5E903
:1004700000230020834208BF82420AD044F02000BB
:10048000782806D1686930213154401C421C6A61C9
:100490003454214668693044E86087E00868C01D2C
:1004A00020F007000860D0E9002308300860C5E9A3
:1004B0000023D5E90001C80F04D06869411C6961B7
:1004C0002D220DE0288F810704D56869411C6961E0
:1004D0002B2205E0C00704D56869411C6961202210
:1004E000325468693044E8602146284600F0C8F973
:1004F00092E005F13A02507820B14FF0FF340FF648
:10050000502062E01078622808D0682824D06A2839
:1005100012D06C282ED071280ED02BE00A680A6009
:1005200052F8040B0A6020B94FF0FF340FF6382060
:100530004BE0E96A01706FE00A680A6052F8040B48
:100540000A6020B94FF0FF340FF61C203DE0EA6A44
:10055000D317C0E900235FE00A680A6052F8040B71
:100560000A6020B94FF0FF340FF6FC102DE0E96A65
:10057000018051E00A680A6052F8040B0A6020B951
:100580004FF0FF340FF6E0101FE0E96A016043E02E
:100590000A680A6052F8040B0A60002120F0000289
:1005A00021F0FF33C5E90023EE607821284600F0F2
:1005B000BBF831E00868086050F8044B0860EC6054
:1005C0003CB94FF0FF340FF6B81000F01DFD201AB3
:1005D00070BD2E6B002E04D5204600F035FD04467C
:1005E00008E032460021204600F04AFD002814BFF2
:1005F000041B3446AC610FE06869411C6961252227
:10060000325409E06969481C68612522725421004E
:1006100002D0431C6B613454002070BD2DE9FC41B5
:100620000F46064690467A6B7869396ABC6A121A98
:10063000B869521A796A121AF869521A121A97F896
:100640003800141B41070FD42020002C8DF8000027
:100650000ADD254601236A463946304600F060FC33
:1006600000285DD16D1EF5D17B6942463946304682
:1006700000F056FC002853D130208DF800003D6A70
:10068000002D09DD01236A463946304600F048FC5A
:10069000002845D16D1EF5D1BB69FA683946304650
:1006A00000F03EFC00283BD130208DF800007D6A30
:1006B000002D08DD01236A463946304600F030FC43
:1006C00070BB6D1EF6D1F868B969FB6942183946EE
:1006D000304600F025FC18BB30208DF80000BD6AC4
:1006E000002D08DD01236A463946304600F018FC2B
:1006F000B0B96D1EF6D197F8380041070DD520200E
:10070000002C8DF8000008DD01236A46394630468A
:1007100000F006FC20B9641EF6D10020BDE8F68189
:100720004FF0FF30BDE8F6812DE9FC4707468C46C7
:100730003E69BCF16F0F08BF082405D04CF02000C3
:10074000782814BF0A2410243C25D7E90023BCF1E3
:10075000640F18BFBCF1690F9046994606D100217D
:100760008B4203DAD8F1000869EB49094FF0000A1F
:10077000D14508BFD0451FD1386BE8B9082C4BD103
:1007800097F83800010747D530203B2586F83B0015
:1007900042E000280ED597F8380000F01400102829
:1007A00008D17B6B7969386A5B1A1B1A9A1A002A7E
:1007B000C8BF3A62BDE8F3878DF800C0404649469D
:1007C0002246E31700F088FC3032D0B26D1E3A2882
:1007D000019504DB9DF80000A0F151018A187255C3
:1007E000404649462246E31700F076FC894680469B
:1007F000D14508BFD04503D0F86871198842DDD3D0
:10080000082C09D197F83800010705D5705D30280C
:1008100002D06D1E30207055C5F13C02BA617119CD
:10082000F960386B8242B4DA821A3A624FF6EF709E
:10083000398F01403987BDE8F3872DE9D04306465B
:100840000F4614464FF00008DFF8389412E0E00736
:1008500007D542464B463046394600F055FD064620
:100860000F464046494642464B4600F04DFD641057
:1008700080468946002CEAD130463946BDE8D0830F
:100880002DE9F34F054641F020048DB0D5E90089EC
:10089000612C02AE09D0286B002848BF062003D483
:1008A00008BF672C01D101202863D5E90023580037
:1008B0004015401C0ED119030CD00320A8619DF8EF
:1008C000381061391A2902D20FF2D06111E00FF20B
:1008D000D0610EE059004915491C0FD118030DD104
:1008E0000320A8619DF8381061391A2914D30FF23A
:1008F000B861E868032200F0D9FDD3E1194621F080
:100900000043B3F5801F10460DD20027BB4208BF3D
:10091000BA42019703D111E00FF28861E9E701AA19
:1009200000F018FE0AE0DFF8607307EB1352DFF8FF
:100930005C3301921940DFF858331943C5E90001CF
:10094000612C0ED1E86830210170821CEA609DF8AC
:10095000381061290CBF7821582141706869801CCA
:100960006861D5E900AB2BF0004300202AF00002BB
:10097000834204BF8242002300F05B81612C40F07F
:10098000AA80286B002847BF21210091401C0090BD
:10099000009F7F1C404649460022002300F012FEC3
:1009A000D94601998DF8082038BF89F00049091F00
:1009B000002FD04601910DF1090040F34981B34960
:1009C000DFF8D0B20C91064640464946002200238B
:1009D00000F010FE80F03B814800400D00F11C0249
:1009E00011D0002A0FDD40F2FF70824205DB09F0D2
:1009F000004040EA0B01002013E00C98014041EA5E
:100A0000025140460DE029F00043002028F000028A
:100A1000834208BF82420FBF40461C22404600F07E
:100A200001FE8046894600F09BFEFF1F002F044612
:100A300009DD00F0B3FE02460B464046494600F091
:100A4000BFFE80468946F01D072104E004F00F0236
:100A500000F8012D2411002C01DD491EF6D5491E98
:100A60005CBF002200F8012DF9D5ECE0002019460A
:100A700002AA0A4400E05B1E12F80149491E8442A2
:100A8000F9D00F2804D10DF10900425C521C4254E8
:100A9000002904D50198001D02AE5B1C0190591E6F
:100AA00012D49DF838007218A0F13A07147804F1B6
:100AB00030085FFA88F43A2CA8BFB844491E02F8FF
:100AC0000189F3D58DF83800286B002840F1B080FB
:100AD000591E2963ACE0404649460022002300F03D
:100AE00071FD019938BF89F0004947F297504143A1
:100AF000694A91FBF2F20192D2F1070204DD40460D
:100B00004946FFF79AFE0AE0524200206349FFF788
:100B100094FE02460B464046494600F0C3FE80461E
:100B2000662C286BDFF878B106BF019F0A370627CD
:100B30003F18142FC8BF142730208DF808008946AD
:100B40000DF1090000E03046002F34DD0646404636
:100B5000494600F0CBFF01460A4606F1080304208F
:100B60000A26B2FBF6F606EB860EA2EB4E023032F8
:100B700003F8012C0A22B6FBF2F202EB820EA6EB7E
:100B80004E063036401E03F8026DE9D1083F002FB3
:100B900003F10806D7DD084600F0BCFF02460B460D
:100BA0004046494600F00CFE00225B4600F0ACFBDC
:100BB00080468946CBE70DF10901401A0DF109067F
:100BC00004E00199491E401E0191761C31783029BC
:100BD000F7D0662C02D10199491C03E0652C0CBFAB
:100BE000012100212B6BCB189842B8BF431E002B6C
:100BF0001ED4834204DAF05C3528A8BF392000DA1D
:100C000030201946721E02EB010800E05B1E18F846
:100C10000199491E8145F9D0392802D1705C401CE8
:100C20007054002904D50198401C16465B1C0190A5
:100C3000019800B200901BB29DF838103246284649
:100C400000F034F82EE0C61D002F3FF7BDAE304651
:100C50000DF10901401A009903468842C8BF0B46AE
:100C6000002B0DF109063FF52FAF8342BFF6FEAE14
:100C70000DF10900C15C07297FF7F8AE0F20F6E6F9
:100C8000CBCCCC0C0000244002FCFFFFFFFF0F8008
:100C90000000E03F0000F07FA08601000000F03F70
:100CA00084D797410FB0BDE8F08F00002DE9F847D9
:100CB00083B006468A461746984600F039FFB8F1D9
:100CC000000F406A356B90F8009002DC4FF001088D
:100CD000B6A74AF02000BDF93040662808BF641C62
:100CE00015D0672840F0848014F1040FC0F286808C
:100CF000AC4280F2838096F83800641C010702D46D
:100D0000A845B8BF454620B22D1A48BF00250FFAA6
:100D100084FAF068B169BAF1000F25DC4A1C30236F
:100D20004354002D03DC96F83800010703D5F06822
:100D300000F80290521C15EB0A0FB8BF6C4220B2AB
:100D4000441941424445B8BFA046B26171620FFAEE
:100D500088F5F561F068B3692A463946184400F011
:100D6000A5FB641BB462C4E022B29045084417DAC4
:100D70004246394600F09AFBB0694044B061AAEBA4
:100D80000801002D716203DC96F838100A0705D5BA
:100D9000F16801F80090F069401CF061B562A8E0CC
:100DA000394600F083FBB069002D5044A8EB0408DD
:100DB00003DC96F838100A0703D5F16801F80090B3
:100DC000401CB0610FFA88F08542F368B069B8BF83
:100DD000A8460FFA88F207EB0A01184400F066FBF8
:100DE000B1690FFA88F00144B161281A706280E09D
:100DF000BAF1610F14D14FF0700A16E0A84504DA79
:100E000096F838100A0758BF45466D1E48BF0025A2
:100E1000BAF1670F14BF4FF0450A4FF0650A04E0BE
:100E2000BAF1410F08BF4FF0500AB169F368481C8E
:100E3000B061002D17F8012B5A5403DC96F83810D6
:100E40000A071BD5F168431CB36101F80090002D1F
:100E500014DDA8F101080FFA88F039468542F768D9
:100E6000B8BFA8460FFA88F2F81800F01FFBB06967
:100E70000FFA88F108446D1AB0617562F068B169C3
:100E80000844002C80F800A003D42B224270811C5F
:100E900003E02D2141706442811C00206A460AE073
:100EA00023460A2493FBF4F404EB8405A3EB4503E7
:100EB00002F8013B401C24B2002CF1DC012806DCC6
:100EC0004AF02002652A04BF302201F8012B48B9FC
:100ED000302001F8010B07E0401E1DF800303033D0
:100EE00001F8013B0028F7DCF268B0691044091AE8
:100EF000F16196F8380000F0140010280DD17269E5
:100F0000B169706A8A18F1698218B06A8A18821801
:100F1000706B8242BCBF821A326204B0BDE8F087B7
:100F2000F8B505460E4617461C46002074B117F862
:100F3000011BB068A847B06030B1F06A401CF06295
:100F40000020641EF3D1F2BD4FF0FF30F2BD00006F
:100F50007072696E74665F733A20256E20646973DF
:100F6000616C6C6F776564007072696E74663A20AC
:100F700062616420256E20617267756D656E740014
:100F80007072696E74665F733A20626164202573C3
:100F900020617267756D656E740000006E616E0091
:100FA0004E414E00696E6600494E4600300030B436
:100FB000002513E050F8042BD30744BFA9F1010327
:100FC0009A18091F042942F8045BFAD213468C07C9
:100FD00044BF15809B1CC90748BF1D7050F8041BF7
:100FE0000029E7D130BC70470278C9B28A421AB1F1
:100FF0001CBF10F8012FF9E718BF002070470268E6
:10100000531C03601170704780B500B906A00549F4
:101010000B681BB122220021984701E000F08CFDF3
:10102000222002BD845D0020636F6E73747261695B
:101030006E742068616E646C65723A20626164202F
:101040006D6573736167650000F10103810704D06A
:1010500010F8011B820781B1FAD10268A2F10131B7
:10106000914311F0803104BF50F8042FF6E709BA1C
:10107000B1FA81F100EBD100401CC01A70470000AA
:10108000C9B2830706D0521E22D310F8013B994201
:10109000F7D11FE0083A13D302F1040241EA01211B
:1010A00041EA014150F8043B121F21BF4B40A3F11C
:1010B000013C2CEA030C1CF0803FF3D0C9B2001FA6
:1010C000083210F8013B521E28BF91EA030FF8D8EE
:1010D00018BF0120401E7047BBBBE1B1B2F5803F95
:1010E00080F07E80022A1ED98C46B1FBF2F102FB11
:1010F00011C31B0443EA1043B3FBF2FC02FB1C3395
:1011000080B240EA0343B3FBF2F002FB103240EA44
:101110000C4000237047022A05D98446B0FBF2F048
:1011200002FB10C270474AB105D100F00102490824
:101130005FEA3000704700220023704700F000BDD6
:101140000B000200002100207047904271EB030C5D
:10115000F6D3B3F5803F2FD2F0B5B3FA83F7B1FAE7
:1011600081F4A7F10F0E3D1B5340CEF1200602FA89
:101170000EF2F3415340B5F10F0746D80F3C2C4413
:101180004140C4F12006A040F1414140B1FBF3F6DB
:1011900003FB1611A2FB0645001BA94102D2761ED5
:1011A0008018594180EA010221FA0EF362FA0EF228
:1011B00000215A403046F0BD30B4B1FBF3FC03FBD4
:1011C0001C11A2FB0C45001BA94103D2ACF1010C80
:1011D0008018594130BC02460B46604600217047DA
:1011E000B2F1807F65D3F0B5B2FA82F7B1FA81F43B
:1011F000C7F10F063D1B22FA06F307F1110EF2416B
:1012000020355A40B5F10F07B8D94140C4F1200646
:10121000A040F1414140B1FBF3FC03FB1C11A2FBD8
:101220000C45001BA94103D2BCF1010C80185941A7
:101230000F2F12D30F3FC90341EA5041B1FBF3F620
:1012400003FB1611A2FB0645D4EBC030A94102D224
:10125000761E8018594146EACC3C07B34140C7F19D
:101260002006B840F1414140B1FBF3F603FB1611F3
:10127000A2FB0645001BA94102D2761E80185941E7
:1012800080EA010221FA0EF3C7F1200462FA0EF29D
:101290000CFA07F05A402CFA04F13043F0BD80EA12
:1012A000010221FA0EF3002162FA0EF260465A4062
:1012B000F0BD8C46B1FBF2F102FB11C31B0243EA05
:1012C0001063B3FBF2FC02FB1C331B024CEA002050
:1012D00043EA1063B3FBF2FC02FB1C331B024CEA33
:1012E000002043EA1063B3FBF2FC02FB1C331B0239
:1012F0004CEA002043EA1063B3FBF2FC02FB1C3211
:101300004CEA002000237047B0B581EA030C0CF0D2
:10131000004C40F2FF7515EA11541DBF15EA135732
:10132000AC42AF4239E0E41923EA455343F4801359
:10133000C90241F0004141EA505EC7021100A7FB1B
:10134000020200284FF00000EEFB01204FF00001E8
:10135000E3FB072118BF42F0010240180021494178
:10136000E3FB0E01A4F580640F0302D2520040415A
:10137000494154F101046CDD470872F1004250F11B
:10138000000051EB0451A1F580115CBF41EA0C0152
:10139000B0BD4CEA05510020B0BD05EA1357AC4280
:1013A00014BFAF4241E050EA410E1CBF52EA430E67
:1013B00002E061460020B0BD24423C441BD15FEAFC
:1013C000070EF6D0090302BF01460020AEF1140E4D
:1013D000B1FA81F7AEEB070401FA07FE0C37C7F14B
:1013E000200100FA07F7C8404EEA000E23EA4553F1
:1013F00043F48013A2E733F00043B3FA83F704BF4A
:10140000B2FA82FE77440B3FE41BB7F1200E2FBFE8
:1014100002FA0EF3BB40C7F1200E22FA0EFE38BFCF
:1014200043EA0E03BA40641C82E750EA410E14BF3F
:1014300052EA430E6FF000014FF4001717EB430F11
:101440008ABF194617EB410FB5E74CEA055100205A
:10145000B0BDD4F10104B4F120070FDAC4F12007C4
:10146000520828BF42F0010210FA07F501FA07F707
:10147000E1BF2A43E0403843E1400FE0352C98DCDF
:10148000C7F1200452EA400220FA07F218BF42F0E6
:10149000010231FA07F0A1400A43002172F1004233
:1014A00050F1000051EB0C01B0BD000062B38B079E
:1014B00008D0521E11F8013B00F8013B00F02480D7
:1014C0008B07F6D1830740F0208000BF103A07D386
:1014D00030B4B1E83810103AA0E83810F9D230BC76
:1014E000530724BFB1E80810A0E8081044BF51F822
:1014F000043B40F8043BD20724BF31F8022B20F80C
:10150000022B44BF0B7803707047121F17D35B0088
:1015100009D151F8043B20F8023B1B0C121F20F8A4
:10152000023BF6D20BE051F8043B00F8013B1B0AEA
:1015300020F8023B1B0C121F00F8013BF3D238BF0E
:10154000121D521E24BF11F8013B00F8013BF8D8D0
:101550007047000010B5144600F002F8226010BD7C
:10156000C1F30A5343B14A0012F5001F28D2A3F277
:10157000FE32A1EB0251704750EA410C20D001F03D
:10158000004C31EA0C01B1FA81F204BFB0FA80F3E9
:10159000D2180B3AB2F120032CBF00FA03F19140AC
:1015A00041EA0C013EBFC2F1200C20FA0CF31943B2
:1015B0009040524240F2FD33D21A01EB0351704782
:1015C000002270474FF4001C1CEB410F94BF1CEB32
:1015D000430F09E041EA030C50EA4C0C52EA0C0CB0
:1015E00003D2994208BF9042704714BF8B42824297
:1015F000704700004FF4001C1CEB410F94BF1CEB24
:10160000430F09E041EA030C50EA4C0C52EA0C0C7F
:1016100003D28B4208BF8242704714BF9942904266
:1016200070470000124254D440F2FF7C1CEA115370
:101630000FD0634531D09B1863453CBF01EB02518D
:10164000704701F0004141EA0C510020AFF30080E7
:10165000704750EA410320D001F0004C91EA0C01A0
:101660001CD0B1FA81F30B3B9A420DD9D21A9940A2
:1016700051EA0C01C3F1200C20FA0CFC61449840A3
:10168000531C40F2FF7CD7E7914041EA0C01C2F1C4
:10169000200C20FA0CF3194390407047B0FA80F305
:1016A0001533202BE0D3202AEED3203A203B9A4258
:1016B00009D9D21A00FA03F141EA0C010020531CA7
:1016C00040F2FF7CB8E700FA02F141EA0C01002089
:1016D0007047524240F2FF7C1CEA11530DD0634523
:1016E000DBD0B2EB030C3CBFA1EB025170470CF115
:1016F000010221EA035141F4801150EA410CCCD09F
:1017000001F0004C352A27DC30B481EA0C01B2F13B
:10171000200309DAC2F12003044601FA03F5D040A0
:101720002843D1409C400CE0C3F12002450020FA40
:1017300003F418BF44F0010421FA03F091400C4374
:10174000002174F1004550F1000051EB0C012442DE
:1017500030BC7FF47BAF70476146002076E7000025
:10176000C1F30A5340F2FE329B1A14DDD3F1200379
:101770004FEAE17208DDC90241EA505141F00040F0
:10178000D84080185040704703F2E13010B1D24386
:1017900082F000407047002070470000C11768B118
:1017A0004840401AB0FA80F29040D21CC907C2F5F6
:1017B000846241EA025202EBD021400570470000EA
:1017C00070B44FF0004591EA030F40F1BB816B40CC
:1017D000841A71EB030603D2001BB1411219734145
:1017E0004FF4001C1CEB410F34BF7CEB430442E080
:1017F0000C0DA4EB1356352E4FDC45EAC323DB0A50
:1018000045EAC121C912B6F120050DDD63FA05F6DE
:10181000EB4086EA0305124218BF45F00105C018E7
:1018200051F100010CD213E062FA06F5F240554086
:10183000F3415A40B340F3405A408018594107D30E
:1018400049085FEA30005FEA350528BF45F0010529
:1018500001F58011420875F1004250F1000041EBA2
:1018600004514E0016F5001F70BC38BF70470020B1
:10187000090D090570471CEB410F10D252EA4306CF
:101880000BD0BCEB410F05D80C0DAB43661E342EBC
:10189000B6DD02E0AB438018594170BC704770BCA4
:1018A00070470000F0B540F2FF7581EA030C0CF0C0
:1018B000004C15EA11541DBF15EA1357AC42AF4254
:1018C000E5E0BC41C1F31301C3F31303801A99414E
:1018D00043F4801304D2641E4000494180185941EA
:1018E000C90241EA5051B1FBF3F603FB1611A2FB0A
:1018F0000675D7EBC020A94102D2761E8018594147
:10190000C90241EA5051B1FBF3FE03FB1E11A2FBD9
:101910000E75D7EBC020A94103D2AEF1010E80189D
:101920005941890241EA9051760546EA8E2EB1FB73
:10193000F3F603FB1611A2FB0675D7EB8020A94135
:1019400002D2761E80185941C90241EA50514EEA2E
:10195000060EB1FBF3F603FB1611A2FB0675D7EBDF
:10196000C020A94102D2761E80185941C90241EA1D
:101970005051B1FBF3F703FB1711A2FB0735D3EB73
:10198000C020A94167F100070CBF004247F00107E2
:1019900066F3D5274FEA1E31B80814F5806412DDCE
:1019A000BD0775F1004250EB0E5051EB045111F59B
:1019B000801F5CBF41EA0C01F0BD4CF07F6141F03B
:1019C000E0410020F0BDBD076D0840EA0E5041F433
:1019D0008011D4F10104B4F120060ADAC4F1200622
:1019E0000200E04001FA06F3E1401843B24015431B
:1019F0000EE0342C13DCC6F1200445EA40056D08E6
:101A000020FA06F2154321FA06F0A1400D43002109
:101A100075F1004250F1000051EB0C01F0BD0020C7
:101A20005FEA0C01F0BDCFB992185B41B3FA83F7BE
:101A300004BFB2FA82F6BF190B3FB7F120062FBFE1
:101A400002FA06F3BB40C7F1200622FA06F638BFB9
:101A50003343BA401CB1E419641E33E77F4231F0CE
:101A60000041B1FA81F404BFB0FA80F6A4190B3C2E
:101A7000B4F120062FBF00FA06F1A140C4F1200600
:101A800020FA06F638BF3143A0403C1B1AE7AC42AF
:101A90001ABF05EA1357AF4212E050EA41061CBFD5
:101AA00052EA4306BFE750EA4107304661461CBF91
:101AB00041EA0551F0BD52EA430C08BFC143F0BDF5
:101AC00000204FF4001616EB410F98BF16EB430FA2
:101AD00008BF16EB410F24BFC14305E016EB430FCF
:101AE0000CBF61464CEA0551F0BD0000400D49189D
:101AF00040EA81200CD2490DA1F58061491C40F0DB
:101B0000004005DBD1F11F0154BFC840C01770472A
:101B100000207047014648B1B0FA80F18840C91CE6
:101B2000C1F58461090501EBD02140057047000033
:101B30000048704748000020012000F0B9B80000BC
:101B400070470000841A71EB030604D26E40001B3C
:101B5000B141121973414FF4001C1CEB410F34BF0B
:101B60007CEB430683E00C0DA4EB1356362E00F3FA
:101B70007C80012E45EAC32341DC43EA525312BF65
:101B8000D20292025B08240545EAC12141EA505184
:101B9000D2EBC020994125D407D1B0FA80F610FAD3
:101BA00006F162D00020203608E0B1FA81F6B1409B
:101BB000C6F1200220FA02F21143B0404FEAF47459
:101BC000B4EB465434F001064FEA74040AD8D6F553
:101BD0000016760D04F00044F04061FA06F2504021
:101BE000F1404840C00A40EA415021F0004128BF7E
:101BF0005FEA500550F1000044EBD12135E0DB0AEB
:101C000045EAC121C90AB6F120050EDD42EA0242C9
:101C1000120CC5F1200603FA06F6EB4042EA06056F
:101C20006D42984161F100010DE062FA06F5F24063
:101C3000554063FA06FC82EA0C02F3405A406D42BA
:101C4000904161EB030111F4801F05D1641E620510
:101C500002D06D004041494121F48011430875F1E3
:101C6000004350F1000041EB045170BC70471CEB85
:101C7000410F15D223F0004352EA43060BD04FEA3E
:101C80004C0CBCEB410F04D80C0D661E342EB7DD96
:101C9000EBE7801A994150EA410608BF0021E4E7CA
:101CA00008BF1CEB430F28BF6FF00001DDE7000009
:101CB00080B5AFF30080024A11001820ABBEFBE7ED
:101CC0002600020080B501224021DFF8380800F02C
:101CD000B3FF4FF4966001F01DF8DFF8C80B01F078
:101CE00019F901BD38B5FFF7EDFFFFE70122DFF875
:101CF000D818DFF8D80801F086F900205FF0FF302F
:101D000002E00A2001F006F86421DFF8C40801F0BF
:101D10003AFE0400002CF4D1DFF8B80801F0FAF81C
:101D20000120DFF8B4180870002502E00A2000F056
:101D3000F1FF2800451C0A2808DA4FF49671DFF8F5
:101D40009C0801F020FE0400002CEFD114F1010FDB
:101D5000CCD0002502E00A2000F0DCFF2800451C62
:101D60000A2804DA01F0A9FE0400002CF3D114F1D2
:101D7000010F04D1DFF8C00801F0CCF8B6E7DFF8B6
:101D8000BC0801F0C7F83221DFF8B40801F0FBFD10
:101D9000DFF8B0484FF49671200001F0F4FD4FF4E5
:101DA0009671DFF8A40801F0EEFD4FF49671200063
:101DB00001F0E9FD0A2000F0ADFF0A2000F0AAFFC3
:101DC000002002E00A2000F0A5FF4FF49671DFF832
:101DD000D00801F0D8FD01F0A6FE0400002CF1D1DE
:101DE000DFF8C05801202870DFF8BC0801F092F835
:101DF00014F1010F06D1002028700020DFF8E41A4A
:101E0000087073E7052000F085FF31BD10B5002094
:101E1000DFF8E00801F07EF8DFF8DC0801F0B3FD40
:101E200004002000C0B2002804D0DFF8D00801F080
:101E300071F835E001F05CFEE4B2002C04D0DFF86C
:101E4000C00801F067F82BE00A2000F063FFDFF81C
:101E5000B40801F05FF8DFF8F40801F094FDC0B2B7
:101E600000281DD10A2000F055FFDFF8E40801F03A
:101E70008AFDC0B2002804D0DFF8D80801F04AF883
:101E80000EE00A2000F046FFDFF8CC0801F042F82F
:101E90000120DFF8C8180870DFF84C0A01F03AF8A2
:101EA00010BD80B5DFF8440A01F0EFFD01BD000070
:101EB0003EB5DFF8AC08017801295ED1DFF8A4084F
:101EC0000168DFF8A428B1FBF2F100EE101ADFF888
:101ED0009C180A68DFF89038B2FBF3F200EE902A03
:101EE000DFF88C48B8EE400A84ED000ADFF8742968
:101EF000B8EE600A82ED000ADFF86C380568006809
:101F0000B0FBF3F003FB105500EE105A08680968A7
:101F1000B1FBF3F103FB110300EE903AB8EE400A77
:101F20009FED931A80EE010A9FED921A80EE010A4E
:101F300094ED001A30EE010A84ED000AB8EE600A52
:101F4000DFED8B0A80EE200ADFED8A0A80EE200AA0
:101F5000D2ED000A30EE200A82ED000A106801F08E
:101F6000D3FECDE90001206801F0CEFE02000B0097
:101F7000DFF8780800F0CEFF0DE000210170DFF8F7
:101F8000A80800F0C7FFDFF8E80700210160DFF8CC
:101F9000D4080021016037BD2DE9F041A2B0050051
:101FA00006A8DFF888187022FFF790FAFFF780FF85
:101FB000DFF8BC7797ED000AB5EE400AF1EE10FAB3
:101FC00008D0DFF8A08898ED000AB5EE400AF1EEDF
:101FD00010FA01D100202BE0DFF88C48DFF88C6884
:101FE000DFF80C09006801F08FFECDE90401D8F894
:101FF000000001F089FECDE90201386801F084FE9D
:10200000CDE90001326806A9200001F0A1FE200000
:10201000FFF71AF80121B0FBF1F73A0092B2210064
:102020002800FFF743FA3068401C3060380080B267
:1020300022B0BDE8F0812DE9F04FA3B00500DFF834
:10204000B4080068401CDFF8AC180860DFF8A87816
:102050003868401C3860DFF8A488D8F80000401CBD
:10206000C8F80000DFF89898D9F80000401CC9F8BB
:102070000000DFF890A8DAF80000401CCAF8000061
:10208000DFF884B8DBF80000401CCBF8000005A89E
:10209000DFF878187822FFF719FADFF8CC47DFF875
:1020A000CC67D9F800000490D8F800000390386895
:1020B0000290DFF8400800680190DAF800000A2179
:1020C000B0FBF1F00090DBF800000A21B0FBF1F367
:1020D000326805A9200001F03BFE2000FEF7B4FFA6
:1020E0000121B0FBF1F73A0092B221002800FFF77E
:1020F000DDF93068401C3060380080B223B0BDE8A4
:10210000F08FDFF80C080178DFF808080078014349
:10211000DFF8040800780143DFF800080078014385
:10212000C9B2002921D1DFF8F8070178DFF8F407F8
:1021300000780143DFF8F00700780143DFF8EC078F
:1021400000780143C9B200290FD1DFF8E407017814
:10215000DFF8E00700780143DFF8DC07007801438F
:10216000C9B2002901D1002000E001207047000021
:102170000000704200401C4670B5ADF5836D040050
:102180004FF47A710022DFF8B4572E00300001F0CE
:10219000FFFDFAA8DFF8A8173022FFF797F9DFF85C
:1021A00070070078012803D16AA1280001F023FEFE
:1021B000DFF860070078012803D167A1280001F04B
:1021C0001AFEDFF854070078012803D163A1280024
:1021D00001F011FEDFF844070078012804D1DFF890
:1021E0006417280001F007FEDFF8340700780128A3
:1021F00004D1DFF85417280001F0FDFDDFF82407B3
:102200000078012804D1DFF84417280001F0F3FD1D
:10221000DFF814070078012804D1DFF8341728000C
:1022200001F0E9FDDFF804070078012804D1DFF8A8
:102230002417280001F0DFFDDFF8F40600780128FC
:1022400003D147A1280001F0D6FDDFF8E8060078A9
:10225000012803D143A1280001F0CDFDDFF8D80605
:102260000078012804D1DFF8F016280001F0C3FD42
:10227000DFF8F8652B003268FAA9684601F068FDBE
:102280006846FEF7E1FE0121B0FBF1F52A0092B2AB
:1022900069462000FFF70AF93068401C30602800CA
:1022A00080B20DF5836D70BDDFF8B0060178DFF800
:1022B000B00600780143DFF8AC0600780143DFF890
:1022C000A80600780143C9B200293FD1DFF89C0677
:1022D0000178DFF89C0600780143DFF89806007863
:1022E0000143DFF8940600780143C9B200292DD1DB
:1022F000DFF888060178DFF8880600780143DFF808
:10230000840600780143DFF8800600780143C9B2F3
:1023100000291BD1DFF874060178DFF87406007815
:102320000143DFF8700600780143DFF86C0600789F
:102330000143C9B2002909D1DFF8600600780028FE
:1023400004D1DFF85C060078002801D0012000E00D
:102350000020704748463B0054463B004D463B003A
:10236000524C3B0049463B00F0B58BB00400684638
:10237000DFF830162C22FFF7A9F84FF47A7100220B
:10238000DFF824562E00300001F002FDDFF8CC0506
:102390000078012804D1DFF81416280001F02BFD85
:1023A000DFF8BC050078012804D1DFF80416280006
:1023B00001F021FDDFF8AC050078012804D1DFF839
:1023C000F415280001F017FDDFF89C0500780128BE
:1023D00004D1DFF8E415280001F00DFDDFF88C05CD
:1023E0000078012804D1DFF8D415280001F003FD9E
:1023F000DFF87C050078012804D1DFF8C415280037
:1024000001F0F9FCDFF874050078012803D16DA113
:10241000280001F0F0FCDFF868050078012803D1FE
:1024200084A1280001F0E7FCDFF8580500780128B6
:1024300004D1DFF89015280001F0DDFCDFF8480535
:102440000078012804D1DFF88015280001F0D3FCC2
:10245000DFF838050078012804D1DFF8701528006E
:1024600001F0C9FCDFF828050078012804D1DFF865
:102470006015280001F0BFFCDFF81805007801287E
:1024800004D1DFF85015280001F0B5FCDFF808058D
:102490000078012804D1DFF84015280001F0ABFCDA
:1024A000DFF8F8040078012804D1DFF8301528009F
:1024B00001F0A1FCDFF8E8040078012804D1DFF87E
:1024C0002015280001F097FCDFF89C63DFF89C736F
:1024D0002B003A686946300001F03AFC3000FEF704
:1024E000B3FD0121B0FBF1F52A0092B231002000CA
:1024F000FEF7DCFF3868401C3860280080B20BB063
:10250000F0BD0000001002401CB5DFF8D844DFF831
:10251000D8040090DFF8D434DFF8D424DFF8D414E2
:10252000200001F015FC210087A000F0F3FCDFF88B
:10253000C80400F0EFFC200001F0ABF9DFF8BC4468
:102540004FF496724FF49671200001F0F8F9B5A19E
:10255000200001F05FFC002801D0002001E05FF0C6
:10256000FF3016BD10B5DFF87C44DFF8941420006E
:1025700001F0EEFB210074A000F0CCFC200001F083
:1025800088F9DFF8784441F288324FF496712000E0
:1025900001F0D5F9DFF86C14200001F03BFC0028B5
:1025A00006D1DFF86414200001F034FC002805D0C7
:1025B000DFF8580400F0AEFC002001E05FF0FF30CF
:1025C00010BD0000534C3B008A5D0020645B00207E
:1025D00070760008DC7400088B5D002078760008B7
:1025E00018B5CBB06846DFF828144FF49672FEF7A2
:1025F0006DFF694654A000F08DFC684601F049F972
:10260000DFF8F84341F288324FF49671200001F070
:1026100096F9DFF80014200001F0FCFB002805D03B
:10262000DFF8F40300F076FC002001E05FF0FF30FB
:102630004CB010BD53483B00EC740008F473000824
:1026400080760008C8750008FC74000818B5CBB087
:102650006846DFF8C8134FF49672FEF737FF6946F5
:1026600039A000F057FC684601F013F9DFF88C43FD
:1026700041F288324FF49671200001F060F9DFF8E2
:10268000A013200001F0C6FB002805D0DFF894035A
:1026900000F040FC002001E05FF0FF304CB010BDC6
:1026A000887600088C5D00204073000818B5CBB018
:1026B00002000B00DBB2DFF87013684601F048FB44
:1026C000694621A000F026FC684601F0E2F8CB4CF8
:1026D00014224FF49671200001F031F972A120000C
:1026E00001F098FB002801D0002001E05FF0FF30EE
:1026F0004CB010BD087400080C7500081C7400086C
:10270000307400084474000810B5C84C200001F073
:10271000C0F8200000F0FEFB64A000F0FBFBB74C0B
:10272000C8224FF49671200001F009F9C049200039
:1027300001F070FB002804D0BE4800F0EBFB002045
:1027400001E05FF0FF3010BD257300001C7500082C
:102750002C75000858730008707300088F5D002006
:10276000AF5D0020745D002040420F00785D0020C6
:10277000F45C002070B5B04D00202870AF4E0020F2
:1027800030705FF0FF3408E0FFF7BEFE0400AC4895
:1027900000F0C0FB0A2000F0BDFA002CF4D1A948DB
:1027A00000F0B8FB02E0A84800F0B4FB2878401C19
:1027B00028702878062801DB01F0BBFBFFF7D2FE6A
:1027C0000A2000F0A7FAFFF70BFF0028EBD1FFF774
:1027D0003DFF002803D09D4800F09CFBE6E79C48A5
:1027E00000F098FB01203070002070BD3C720008A2
:1027F00038B54FF4167100228C4D2C00200001F0EA
:10280000C7FA944C2800FFF716FC20802088002887
:1028100006D02188C9B29048FFF748FFFFF774FF40
:1028200031BD00004F4B0000A0730008846F00080A
:1028300038B54FF4167100227C4D2C00200001F0B9
:10284000A7FA844C2800FFF7A7FB208020880028E7
:1028500006D02188C9B28048FFF728FFFFF754FF50
:1028600031BD0000F85C00207C440020005D0020A9
:1028700038B54FF4167100226C4D2C00200001F089
:1028800087FA744C2800FFF777FC20802088002806
:1028900006D02188C9B27148FFF708FFFFF734FF5F
:1028A00031BD0000CC7400083E0000000D0A00009D
:1028B00038B54FF4167100225C4D2C00200001F059
:1028C00067FA644C2800FFF74FFD2080208800281D
:1028D00006D02188C9B26248FFF7E8FEFFF714FF6F
:1028E00031BD00008D5D0020587400088873000819
:1028F000FC5C0020045D0020085D00200C5D0020D1
:10290000105D0020145D0020185D00200C6F000891
:10291000905D0020915D0020925D0020935D00207D
:10292000945D0020955D0020965D0020975D00205D
:10293000985D0020995D00209A5D00206448002089
:10294000D07000089076000898760008A0760008FD
:10295000A8760008B0760008B87600089B5D0020D5
:102960009C5D00209D5D00209E5D00209F5D0020FD
:10297000A05D0020A15D0020A25D0020A35D0020DD
:10298000A45D0020A55D0020A65D0020A75D0020BD
:10299000A85D0020A95D0020AA5D0020AB5D00209D
:1029A000AC5D0020007100084C4C0020C07600088F
:1029B000C8760008D0760008D8760008E0760008CF
:1029C000E8760008F0760008F8760008007700083E
:1029D00008770008107700081877000820770008AB
:1029E0002877000834500020D0710008E0750008F6
:1029F000D475000858710008EC750008AC57002029
:102A0000F46F00083C7500084C7500086C740008F1
:102A1000B46C0008F8750008EC720008E06D00085E
:102A20005C750008B8730008087300085453002050
:102A30006C75000824730008AD5D00208E5D0020D9
:102A40008074000894740008A87400085C72000880
:102A50007C720008885D00206870000830700008F3
:102A60009C700008F8B4002200220022002337E006
:102A7000082704E0DFF8D4219042F9D10727FFB2FC
:102A800013F00302D2B2920097403E431A0092081C
:102A900045F82260DFF8B8512A68A2434E68F60371
:102AA00000D522432A60DFF8AC512A68A2434E6861
:102AB000B60300D522432A60DFF89C512A68A2435E
:102AC0004E68F60200D522432A60DFF890512A684A
:102AD000A2434E68B60201D5144322002A605B1C53
:102AE000102B80F0A780012515FA03F20C68144022
:102AF0009442F4D10A7912F00302012A04D00A792F
:102B000012F00302022A16D1866803271A00D2B2F5
:102B100052009740BE43CF681A00D2B2520097408D
:102B20003E43866042689D40AA434D68C5F3001548
:102B30009D402A4342600A7912F00302032A0DD015
:102B4000C56803261A00D2B252009640B5438E687B
:102B50001A00D2B2520096403543C5600A7912F08D
:102B60000302022A17D11A00D20800EB8202156A6A
:102B70000F2613F00702D2B292009640B5430E69B9
:102B800013F00702D2B29200964035431A00D208E1
:102B900000EB82021562056803261A00D2B25200C9
:102BA0009640B5430E7916F003061A00D2B25200D1
:102BB0009640354305604A68D20090D500220092C5
:102BC000274A156855F480451560126812F4804252
:102BD0000092009A234D1A00920855F822600F27A0
:102BE00013F00302D2B292009740BE431E4A9042B5
:102BF00001D1002743E71D4A904201D101273EE75A
:102C00001B4A904201D1022739E71A4A904201D16A
:102C1000032734E7184A904201D104272FE7174AC7
:102C2000904201D105272AE7154A90427FF422AF4E
:102C3000062724E7F1BC7047D2B2002A02D089B23D
:102C4000816102E089B2090481617047001C024081
:102C5000003C0140043C0140083C01400C3C014068
:102C6000443802400838014000000240000402409D
:102C700000080240000C0240001002400014024014
:102C800000180240010000200A0012B2842A03D07A
:102C900009B2C91C091808007047EFF30580002825
:102CA00001D0012000E00020C0B2704780B501F0E3
:102CB0009BFA002002BD38B584B004000D006069A5
:102CC000002815D0A069002812D0B4F90800FFF739
:102CD000D9FFA16902916169019100902B002269DD
:102CE0002168606801F036F90390039805B030BDA3
:102CF000B4F90800FFF7C6FF03A9019100902B006B
:102D0000226992B22168606801F066F90128ECD06E
:102D10000020EBE780B50121B0FBF1F0002800D1E5
:102D2000012001F03BFA002002BDE0B5130042682B
:102D3000002A0ED0C9B2012901D1012200E00022EF
:102D40004168019100680090012123A001F04EFE2E
:102D50000BE0C9B2012901D1012200E00022006884
:102D6000009001211CA001F026FE0EBD7CB50600DE
:102D70000025002001900120B1FBF0F4002C00D1CF
:102D80000124FFF78AFF002818D00020009001AB33
:102D900022000921300001F079FE012801D0FF2531
:102DA00017E00198002814D05FF08050DFF8601120
:102DB0000860BFF34F8FBFF36F8F0AE000200090D1
:102DC000002322000421300001F060FE012800D021
:102DD000FF25280076BD00000000000080B5816856
:102DE00000290BD0C168002908D000210091C368D8
:102DF00082684168006802F084F804E000224168BB
:102E0000006802F0D2F802BD33B581B005000020A1
:102E100000900120B2FBF0F4002C00D10124FFF758
:102E20003CFF002816D000236A4602A9280002F0C1
:102E3000BAF9012801D0FF200BE00098002807D044
:102E40005FF0805032490860BFF34F8FBFF36F8F40
:102E500000203EBD0023220002A9280002F0D8F87D
:102E60000128F5D0FF20F4E77FB506000D0002959C
:102E700000200190002D07D180200090684690E846
:102E80000E0086E80E0041E000200390002412F1BD
:102E9000010F02D15FF0FF3407E0002A05D00120C6
:102EA000B2FBF0F4002C00D10124FFF7F6FE00285D
:102EB00017D003AA01A9280002F094FA012802D130
:102EC0001020009001E0002000900398002818D006
:102ED0005FF080500E490860BFF34F8FBFF36F8FD4
:102EE0000FE0220001A9280002F0CDF9012802D14B
:102EF0001020009005E0002C01D1002000E04020CF
:102F00000090684690E80E0086E80E007FBD000045
:102F100004ED00E00EB4C0B5024603A80021019004
:102F2000009101AB0121044878440C30FDF72CF9E5
:102F300006BC5DF810FB00BF9944000010B504000A
:102F4000002C01D1012033E0A0690028FFD194F8C2
:102F50003D00002805D1002084F83C00200000F04E
:102F600022FC242084F83D002068C06830F4005022
:102F70002168C860200000F05CFA2068006930F425
:102F80009040216808612068406930F02A0021687B
:102F900048612068C06850F400502168C860002073
:102FA0002064202084F83D00202084F83E0000208A
:102FB00010BD90F83D30202B23D1002903D0130001
:102FC0009BB2002B01D101201CE090F83C30012B7A
:102FD00001D1022016E0012380F83C300162828496
:102FE000C28400210164212180F83D10002180F875
:102FF0003C100168C96851F080010068C160002080
:1030000000E00220704780B590F83E30202B16D1AA
:10301000002903D013009BB2002B01D101200FE047
:1030200090F83C30012B01D1022009E0012380F807
:103030003C300023036392B200F013F900E0022059
:1030400002BD38B50400206801682068C2682068A5
:1030500043690020002011F00F00002807D18D06E1
:1030600005D5950603D5200000F07FF9F8E000288B
:1030700072D0D80702D412F4907F6DD011F0010005
:10308000C0B2002805D0D00503D5206C50F0010057
:103090002064480708D513F00100C0B2002803D00F
:1030A000206C50F002002064880708D513F001005E
:1030B000C0B2002803D0206C50F004002064080740
:1030C0000AD5900604D413F00103DBB2002B03D021
:1030D000206C50F008002064206C00283BD088064B
:1030E00004D5900602D5200000F03FF92068406921
:1030F000800910F00100216C090701D4002825D0B7
:10310000200000F0CDF82068406940061AD52068FC
:10311000406930F0400021684861A06B00280DD064
:103120000FF2B510A16B0865A06B02F0E7FA00285A
:1031300011D0A06BA16B096D88470CE0200002F054
:10314000F0FA08E0200002F0ECFA04E0200002F0BF
:10315000E8FA0020206483E0206B012870D1C806C3
:103160006ED5D0066CD500200090206800680090D5
:10317000206840680090009820684069400639D572
:10318000A06B00684168080080B2002831D00800B8
:10319000A28D80B290422CD2E185A06BC069B0F5BF
:1031A000807F1FD02068C06830F480702168C860BC
:1031B00020684069400840002168486120684069F3
:1031C00030F0400021684861202084F83E00002053
:1031D00020632068C06830F010002168C860A06BD0
:1031E00002F03EFAA18DE08D091A89B2200002F0AA
:1031F00099FA35E0A08DE18D411AE08D00281ED0AE
:10320000080080B200281AD02068C06830F490709E
:103210002268D06020684069400840002268506100
:10322000202084F83E00002020632068C06830F031
:1032300010002268D06089B2200002F073FA0FE01B
:10324000080605D5100603D5200000F04FF807E06A
:10325000480605D5500603D5200000F078F8FFE7B2
:1032600031BD81628285C28500210164222180F8FE
:103270003E10002180F83C100168C96851F480714B
:103280000268D1600168496951F001010268516129
:103290000168C96851F020010068C16000207047D2
:1032A0000168C96831F490710268D16001684969A8
:1032B0004908490002685161016B012905D1016883
:1032C000C96831F010010268D160202180F83E10F9
:1032D000002101637047000080B5806B0021C1852B
:1032E0000021C18402F01DFA01BD000090F83D10DC
:1032F00021292AD18168B1F5805F0CD101690029AB
:1033000009D1016A0988C905C90D02685160016ABD
:10331000891C016205E0016A4A1C026209780268A0
:103320005160C18C491EC18489B200290BD101684A
:10333000C96831F080010268D1600168C96851F044
:1033400040010068C160002000E00220704780B5A5
:103350000168C96831F040010268D160202180F81D
:103360003D1002F0E0F9002002BD10B5040094F811
:103370003E0022285BD1A068B0F5805F0DD12069A6
:1033800000280AD10020A06A21684968C905C90D32
:103390000180A06A801CA06217E0A16A0020A068DA
:1033A000B0F5805F05D0A068002806D1206900280C
:1033B00003D120684068087004E02068406810F07D
:1033C0007F000870A06A401CA062E08D401EE0856E
:1033D00080B2002829D12068C06830F02000216820
:1033E000C8602068C06830F480702168C8602068B8
:1033F00040694008400021684861202084F83E0070
:10340000206B01280AD12068C06830F010002168C4
:10341000C860A18D200002F085F902E0200000F0D4
:1034200027FC00202063002002E0002000E00220B2
:1034300010BD2DE9FE4F05002868016931F44051A7
:10344000E868014328680161A9682869014368693F
:103450000143E86901432868C268AF48024011434C
:103460002868C1602868416931F44071A869014346
:10347000286841612868A949884203D02868A8497A
:10348000884203D102F0FBF9040002E002F0ECF9FB
:103490000400E869B0F5004F40F09F805FF0640AD7
:1034A000022600275FF019085FF0000922000023C0
:1034B000A8FB020108FB031109FB0211CDE9000181
:1034C00068680021A6FB002306FB013307FB0033DD
:1034D000DDE90001FDF700FE6421B0FBF1F0029090
:1034E00022000023A8FB020108FB031109FB0211C3
:1034F000CDE9000168680021A6FB002306FB01332B
:1035000007FB0033DDE90001FDF7E6FD83462200FD
:103510000023A8FB020108FB031109FB0211CDE9FE
:10352000000168680021A6FB002306FB013307FBAE
:103530000033DDE90001FDF7CFFD6421B0FBF1F0C0
:103540000AFB10B0C00032306421B0FBF1F0400043
:1035500010F4F870029910EB011002902200002381
:10356000A8FB020108FB031109FB0211CDE90001D0
:1035700068680021A6FB002306FB013307FB00332C
:10358000DDE90001FDF7A8FD8346200000210200CF
:103590000B00A8FB020108FB031109FB02116A687A
:1035A000002390469946A6FB082306FB093307FB38
:1035B0000833FDF791FD6421B0FBF1F00AFB10BA6E
:1035C0005FEACA0032306421B0FBF1F111F007016B
:1035D00002980918286881609CE0042600275FF0A3
:1035E000640A5FF019085FF0000922000023A8FBBD
:1035F000020108FB031109FB0211CDE90001686813
:103600000021A6FB002306FB013307FB0033DDE9A5
:103610000001FDF761FD6421B0FBF1F00290220092
:103620000023A8FB020108FB031109FB0211CDE9ED
:10363000000168680021A6FB002306FB013307FB9D
:103640000033DDE90001FDF747FD8346220000233A
:10365000A8FB020108FB031109FB0211CDE90001DF
:1036600068680021A6FB002306FB013307FB00333B
:10367000DDE90001FDF730FD6421B0FBF1F00AFB4C
:1036800010B0000132306421B0FBF1F010F0F00016
:10369000029910EB0110029022000023A8FB020106
:1036A00008FB031109FB0211CDE900016868002144
:1036B000A6FB002306FB013307FB0033DDE9000115
:1036C000FDF70AFD83462000002102000B00A8FB45
:1036D000020108FB031109FB02116A6800239046EE
:1036E0009946A6FB082306FB093307FB0833FDF7C1
:1036F000F3FC6421B0FBF1F00AFB10BA5FEA0A1098
:1037000032306421B0FBF1F111F00F010298091879
:1037100028688160BDE8F78FF369FFFF0010014062
:1037200000140140DFF87C150860DFF87C1509689B
:103730000906FAD5704780B5DFF87005DFF8701517
:1037400001604FF416514160002181600021C16089
:10375000002101610C214161002181610021C161D1
:10376000FFF7ECFB002801D002F072F901BD80B533
:10377000DFF84005DFF8301501605FF4E1214160BA
:10378000002181600021C160002101610C214161A3
:10379000002181610021C161FFF7D0FB002801D029
:1037A00002F056F901BD10B586B0040001A814213D
:1037B00002F050F92068DFF8F814884231D1002077
:1037C0000090DFF8F404016851F4003101600068F2
:1037D00010F400300090009800200090DFF8DC0426
:1037E000016851F001010160006810F001000090D3
:1037F00000980C20019002200290002003900320EA
:1038000004900720059001A9DFF8B404FFF72AF916
:1038100000220521262000F076FB262000F084FB04
:103820002EE02068DFF88014884229D10020009023
:10383000DFF88404016851F480210160006810F40D
:1038400080200090009800200090DFF8700401684C
:1038500051F004010160006810F00400009000982D
:103860004FF440600190022002900020039003205A
:1038700004900720059001A9DFF84804FFF7F2F84B
:1038800006B010BD80B5002392B2FFF792FBC0B224
:1038900002BD10B504002000FDF7D6FB020092B275
:1038A0002100DFF80804FFF7EDFFC820FFF732FA28
:1038B00010BD2DE9F0410F0014001D00069E02F01E
:1038C000CDF880460020286040F2E930844202D3DF
:1038D0004FF47A74FFE7210000221AE0DFF8E803D2
:1038E000B0F8EA33B0F8E8C3634512D0B0F8EA3371
:1038F000C35C3B70B0F8EA335B1CA0F8EA337F1C72
:10390000521CB0F8EA33B3F57A7F02DB0023A0F84B
:10391000EA330800411E0028E0D12868101828600A
:10392000A41A002C09D002F099F8B0EB08008642E6
:10393000D1D25FF0FF30BDE8F0810020FBE71CB57D
:10394000040000200190009201AB0A002100002039
:10395000FFF7AFFF00202000FDF776FB002802D123
:103960007FF008000EE0210081A0FFF7D3FADFF816
:103970005C13200000F04EFA002801D0002001E086
:103980005FF0FF3016BD70B5B2B004000D0078A630
:1039900021003000FFF7BEFA2000FFF77AFF6846EB
:1039A000C82102F057F82A00C8216846FFF7C7FF70
:1039B000040069463000FFF7ADFA200032B070BD58
:1039C000F8B50500DFF8084300202060DFF8046345
:1039D00000203060DFF80013280000F01BFA0028F8
:1039E0004ED064A1280000F015FA010000281DD077
:1039F00000220AE033680A271000C0B20844C078E9
:103A000007FB0303303B3360521C1000C0B2142884
:103A10000CDA1000C0B20844C0782E2800D1521C25
:103A20001000C0B20844C0782C28E3D152A128006D
:103A300000F0F0F90100002821D000220EE02368F8
:103A40000A251000C0B20844C07805FB0303303BD0
:103A500023600120DFF884321870521C1000C0B2BD
:103A600014280CDA1000C0B20844C0782E2800D107
:103A7000521C1000C0B20844C0782C28DFD103E0EB
:103A80000020DFF858120870F1BD10B5B2B0FFF792
:103A900000FF6846C82101F0DDFF4FF4FA62C8213B
:103AA0006846FFF74CFF040014F1090F02D0684686
:103AB000FFF786FF200032B010BD00B58DB0DFF8F3
:103AC0002002FFF7E6FE6846342101F0C3FFC8225A
:103AD00032216846FFF733FF8249684600F09AF9C1
:103AE000002801D0002001E05FF0FF300DB000BDE4
:103AF00000B58DB07C48FFF7CCFE6846342101F05C
:103B0000A9FF4FF4FA6232216846FFF718FF7749A0
:103B1000684600F07FF9002801D0002001E05FF046
:103B2000FF300DB000BD00B58DB07148FFF7B1FE9C
:103B30006846342101F08EFF4FF4FA723221684654
:103B4000FFF7FDFE69466B48FFF7E4F96A496846EE
:103B500000F060F9002805D16849684600F05AF97C
:103B6000002801D0002001E05FF0FF300DB000BD63
:103B7000257300002C412C002C4E2C00F8B50400BD
:103B80000D001600002001271BE00100C9B2022928
:103B900061D194F83E10202912D194F83C100129EB
:103BA0000ED14FF4FA7197FBF1F201FB127100296B
:103BB00006D1002184F83C1051490A68521C0A6061
:103BC0007F1CB7F57A7F51DA2068006820680068AA
:103BD000C00708D500200090206800680090206889
:103BE00040680090009820680068800708D5002091
:103BF000009020680068009020684068009000985D
:103C000020680068400708D5002000902068006800
:103C100000902068406800900098206800680007C5
:103C200008D5002000902068006800902068406857
:103C300000900098206C002801D000202064320001
:103C400092B229002000FFF7DEF90100C9B2002975
:103C50009BD1C0B20BE00100C9B2012900D0AFE78F
:103C600028490A68521C0A60C0B200E0C0B2F2BD26
:103C700080B50E4B984214D11348B0F8E813491C94
:103C8000A0F8E813B0F8E813B1F57A7F02DB002161
:103C9000A0F8E8130122B0F8E81301441800FFF778
:103CA0006DFF01BD0448004000480040645B0020F7
:103CB00000440040A85B00204038024030380240F9
:103CC00000000240000802409040002050770008A9
:103CD000745D0020785D002058770008AF5D0020FB
:103CE00004760008107600088C7500081C76000821
:103CF00028760008607700083476000840760008CF
:103D00007C5D0020805D0020C0F3C75181B1FF2998
:103D100006D0C110400721F0E04101F16051704729
:103D200041020CBF40F4E0016FF0004100207047F9
:103D300000F0004100020AD0B0FA80FC00FA0CF05A
:103D400001F16051A1EB0C5101EBD021400570470E
:103D50000CB430B583B00A4606A90291044600258A
:103D60000194009502AB01A9084878441E30FCF785
:103D70000BFA019A157000284EBF04460198041BE7
:103D8000204603B030BC5DF80CFB00BF73D2FFFFD0
:103D900062F30F2262F31F42401810F0030308D0B1
:103DA000C91A1FD3DB0748BF00F8012D28BF20F830
:103DB000022D130030B414461546103928BF20E9EF
:103DC0003C00FAD8490728BF20E90C0048BF40F85A
:103DD000042D890028BF20F8022D48BF00F8012DCE
:103DE00030BC7047C91818BF00F8012DCB0728BF99
:103DF00000F8012D7047034600E05B1C1A78002A8A
:103E0000FBD111F801CB83F800C013F8012B002A75
:103E1000F7D1704770B50D788DB970BD11F8013FBD
:103E20001678B34206D0401C2946FDF7DDF840B1B4
:103E30000146224612F8013F002BEFD170BD0C461F
:103E4000F2E770BD10F007003C4B1A684FF6FF0117
:103E50000A403B4951EA00210A431A60704737483B
:103E60000068C0F302207047010049B2002908D45D
:103E7000012210F01F018A40324940B2400941F846
:103E800020207047020052B2002A04D409012E4AB1
:103E900040B2115407E009012C4A40B210F00F0063
:103EA000104400F8041C704710B410F00700D0F163
:103EB0000703052B01D3042301E0D0F10703041D00
:103EC000072C01D2002000E0C01E012414FA03F3E5
:103ED0005B1E1940814014FA00F0401E1040084358
:103EE00010BC7047BFF34F8F14490A6812F4E062A8
:103EF000174802430A60BFF34F8F00BFFDE780B54C
:103F0000FFF7A0FF01BD70B504000D0016000020F2
:103F1000FFF7A5FF32002900FFF7C6FF01002000D0
:103F200040B2FFF7AFFF70BD80B540B2FFF79CFF16
:103F300001BD80B5FFF7D6FF01BD00000CED00E02C
:103F40000000FA0500E100E000E400E018ED00E008
:103F50000400FA0578B585B005000B98002807D154
:103F6000502080F31188BFF34F8FBFF36F8FFEE7B0
:103F70000C9C002C07D1502080F31188BFF34F8F89
:103F8000BFF36F8FFEE754260096009E542E07D095
:103F9000502080F31188BFF34F8FBFF36F8FFEE780
:103FA000009E002C13D0002811D00A9E206302200E
:103FB00084F8510000200390029404A80190009618
:103FC000280000F043F8200000F09BF801E00020FA
:103FD0000490049806B070BD2DE9F84384B0060043
:103FE0000F0091469846484680B2800001F03CFDA3
:103FF0000500002D0BD0542001F036FD0400002CEC
:1040000001D0256304E0280001F0BCFD00E000249D
:10401000002C16D00D990C98002284F85120002213
:10402000039202940191009043461FFA89F94A468F
:104030003900300000F00AF8200000F062F801209A
:1040400001E05FF0FF3005B0BDE8F0832DE9F843F3
:1040500005001E000A9F386B00EB8200B0F10408D7
:104060005FEAD8085FEAC80818F00700002807D000
:10407000502080F31188BFF34F8FBFF36F8FFEE79F
:10408000002910D0002200E0521C102A07D2885CC0
:1040900007EB020383F83400885C0028F4D1002089
:1040A00087F8430002E0002087F83400DDF8209014
:1040B000B9F1070F01D35FF00609099CC7F82C90EE
:1040C000C7F844900020B864381D01F018FE17F1BD
:1040D000180001F014FE3F61D9F10709C7F81890E4
:1040E0007F620020F864002087F850003200290029
:1040F000404601F041FE3860002C00D02760BDE84A
:10410000F18338B5040001F0C7FEDFF8C014086879
:10411000401C0860DFF8B8542868002806D12C60DD
:10412000086801280DD100F0B6FA0AE0DFF8A4040F
:104130000068002805D1E06A2968C96A884200D36E
:104140002C60DFF894040168491C0160DFF88C14CE
:104150000A680123E06A83401A430A60211DDFF8E0
:104160000425E36A1420434302EB030001F0CAFD77
:1041700001F0ACFEDFF85C04006800280DD0286870
:10418000C06AE16A884208D25FF08050DFF82816E2
:104190000860BFF34F8FBFF36F8F31BD10B50400C0
:1041A0000020002C14D0DFF880050068002807D01C
:1041B000502080F31188BFF34F8FBFF36F8FFEE75E
:1041C00000F05DF80021200000F06AFB00F05DF8CF
:1041D000002808D15FF08050DFF890160860BFF328
:1041E0004F8FBFF36F8F10BD10B586B000200490C5
:1041F0000020039005AA03A904A801F0E9FEDFF856
:1042000078460498029003980190002000900023C3
:10421000059ADFF868160FF25D40FFF79BFE2060FD
:104220002068002801D0012000E00020012801D1F1
:1042300000F08CFB012817D1502080F31188BFF3C8
:104240004F8FBFF36F8F5FF0FF30DFF834160860D9
:104250000120DFF8801308600020DFF828160860CE
:1042600001F0B3FD06B010BD10F1010FFAD15020DE
:1042700080F31188BFF34F8FBFF36F8FFEE7DFF836
:10428000A8040168491C0160704770B5002400252E
:10429000DFF894643068002807D1502080F311883B
:1042A000BFF34F8FBFF36F8FFEE701F0F5FD30686E
:1042B000401E30603068002855D1DFF810030068D8
:1042C000002826D14FE0C868C46814F1180001F036
:1042D00040FD201D01F03DFDDFF800130A680123B9
:1042E000E06A83401A430A60211DDFF87823E36AFD
:1042F0001420434302EB030001F004FDE06ADFF801
:10430000D0120968C96A884203D30120DFF8781502
:104310000860DFF8601508680028D4D1002C01D0AF
:1043200000F025FADFF874653468002C0CD000F03A
:1043300022F8002803D00120DFF84C150860641E25
:10434000002CF4D100203060DFF83C050068002824
:1043500009D001255FF08050DFF810150860BFF329
:104360004F8FBFF36F8F01F0B1FD280070BDDFF8F4
:104370001C0500687047F8B50025DFF8AC0300683D
:1043800000286BD1DFF8FC040468641C0460002C76
:104390001AD1DFF8FC1408680068002807D0502004
:1043A00080F31188BFF34F8FBFF36F8FFEE708686C
:1043B000DFF8E02413680B601060DFF8DC040168AC
:1043C000491C016000F0D3F9DFF8B464306884421E
:1043D0002FD321E0381D01F0BCFCB86A002803D0BF
:1043E00017F1180001F0B5FC7C490A680123F86A4E
:1043F00083401A430A60391DDFF86822FB6A1420E3
:10440000434302EB030001F07DFCF86A7049096840
:10441000C96A884200D30125DFF87414086800686F
:10442000002817D00868C068C76878688442D1D26D
:104430003060674800688B49C26A1420424388583C
:10444000022800D30125DFF84004006800280AD0C4
:10445000012508E05FF0FF303060EAE7DFF83C0458
:104460000168491C01602800F2BDDFF8BC02006849
:10447000002804D00120DFF8101408602AE0002092
:10448000DFF80414086055480068B0FA80F1D1F1F3
:104490001F011422734B02FB01F01858002807D1AA
:1044A000502080F31188BFF34F8FBFF36F8FFEE76B
:1044B000514303EB0100416849684160416810F1D4
:1044C0000802914202D14168496841604068C06871
:1044D0003F490860704710B50C00002807D15020F4
:1044E00080F31188BFF34F8FBFF36F8FFEE7DFF8C4
:1044F00020140968183101F011FC0121200000F09E
:10450000CFF910BD38B50D001400002807D1502098
:1045100080F31188BFF34F8FBFF36F8FFEE7DFF893
:10452000F0130968183101F0EDFB002C01D05FF0A9
:10453000FF352100280000F0B3F931BD10B5C06887
:10454000C468002C07D1502080F31188BFF34F8F2F
:10455000BFF36F8FFEE714F1180001F0FAFB724809
:104560000068002813D1201D01F0F3FB1B490A68E5
:104570000123E06A83401A430A60211D394AE36A35
:104580001420434302EB030001F0BCFB05E014F1EF
:104590001801DFF8E00201F0B5FB0D480068C06AC1
:1045A000E16A884205D201200121DFF8DC22116096
:1045B00000E0002010BDDFF8E01209680160DFF8BC
:1045C000541309684160704700000000345D00200A
:1045D000245D0020405D0020505D00203C5D0020F7
:1045E00038B504000D00002C07D1502080F311884D
:1045F000BFF34F8FBFF36F8FFEE7002D07D1502021
:1046000080F31188BFF34F8FBFF36F8FFEE701F088
:1046100043FCDFF8700200686168411A2A6812F1F1
:10462000010F01D1002418E0DFF86C221268236822
:104630009A4204D06268904201D301240DE02868B8
:10464000814207D22868411A29602000FFF7B3FF92
:10465000002402E000202860012401F037FC200043
:1046600032BD0000D85800200120DFF81C1208607D
:104670007047000080B500F039F8DFF89C02006850
:104680000228F8D35FF0805078490860BFF34F8F5D
:10469000BFF36F8FEFE738B5002408E0DFF878024A
:1046A000142101FB04F1084401F01AFB641C072CDF
:1046B000F4D3DFF86842200001F012FBDFF860520B
:1046C000280001F00DFBDFF8AC0101F009FB064802
:1046D00001F006FB664801F003FBDFF8B40104605B
:1046E000DFF84002056031BD685C002038B515E098
:1046F00001F0D2FBDFF83002C068C468201D01F071
:1047000028FBDFF828020168491E01602868401E66
:10471000286001F0DBFB200000F008F8DFF8105201
:1047200028680028E4D131BD5C5D002010B504008C
:1047300094F85100002806D1206B01F023FA2000E4
:1047400001F020FA10BD94F85100012803D1200097
:1047500001F018FAF6E794F851000228F2D0502040
:1047600080F31188BFF34F8FBFF36F8FFEE7DFF841
:10477000201108680068002805D15FF0FF30DFF8DD
:104780000011086006E00868C068C0684068DFF88B
:10479000F01008607047DFF89C010068002801D124
:1047A000012007E0DFF890010068002801D1022015
:1047B00000E000207047000004ED00E010B50400A8
:1047C000002100284FD0DFF848010068844207D05C
:1047D000502080F31188BFF34F8FBFF36F8FFEE738
:1047E000A06C002807D1502080F31188BFF34F8FB1
:1047F000BFF36F8FFEE7A06C401EA064E06A626C9E
:10480000904230D0A06C00282DD1201D01F0A1FADB
:1048100000280FD1DFF80011E26A142042438858C3
:10482000002807D1DFF814110A680123E06A8340E9
:104830009A430A60606CE062E06AD0F10700A06110
:10484000DFF8F8100A680123E06A83401A430A601F
:10485000211DDFF8C420E36A1420434302EB030068
:1048600001F050FA0121080010BD000004ED00E045
:104870007C5C0020545C0020585D002038770008E4
:10488000545D0020385D0020485D0020385D002028
:10489000285D00202C5D00204C5D0020445D002040
:1048A000F8B505000C001B480668194F3868001D54
:1048B00001F04FFA002807D1386820490A6801231F
:1048C000C06A83409A430A6015F1010F07D1002C9A
:1048D00005D03868011D1A4801F014FA16E0AD1928
:1048E00038684560B54206D23868011D0D48006839
:1048F00001F014FA0AE03868011D1248006801F05E
:104900000DFA114801688D4200D20560F1BD00002A
:10491000245D0020385D0020D85800202C5C002049
:10492000405C00202C5D0020685C0020345D00208D
:10493000305D0020405D00205C5D00203C5D00207B
:104940007C5C0020285D0020545D002038B586B0D6
:10495000002400F04EFADFF8E804006800281DD0BB
:10496000002004900020039005AA03A904A801F0E8
:1049700036FBDFF8D054049802900398019002208F
:1049800000900023059ADFF8C0140FF2D110FFF752
:10499000E1FA28602868002800D00124002C07D103
:1049A000502080F31188BFF34F8FBFF36F8FFEE766
:1049B000200007B030BD2DE9FC4105000E001700B6
:1049C0009846282001F050F80400002C0BD00898DD
:1049D000002184F824100194009043463A003100ED
:1049E000280000F029F82000BDE8F6817CB52824D5
:1049F0000094009C282C07D0502080F31188BFF32E
:104A00004F8FBFF36F8FFEE7079C009D002C07D1EF
:104A1000502080F31188BFF34F8FBFF36F8FFEE7F5
:104A2000002C07D0069D022684F82460019400958E
:104A300000F002F8200076BD2DE9F84307000E00D3
:104A400015009846002E07D1502080F31188BFF33F
:104A50004F8FBFF36F8FFEE7099C002C14D0DDF859
:104A6000209000F0C6F92760A661C4F81C80C4F845
:104A70002090201D01F043F9002D05D094F824006A
:104A800050F0040084F82400BDE8F1837FB50400F1
:104A90001D000020002C07D1502080F31188BFF3A7
:104AA0004F8FBFF36F8FFEE7DFF894633368002BFF
:104AB0001CD0009101920294062911DAFFF76BFED7
:104AC000022806D1089A00236946306800F0A0FA4F
:104AD0000CE0002300226946306800F099FA05E0F6
:104AE00000232A006946306800F05DFB04B070BD09
:104AF0007CB504000D00DFF854030068C068C66888
:104B0000301D01F026F996F8240040071BD523003C
:104B10002A00B1690919300000F087F8002818D080
:104B2000002000900023220000213000FFF7AEFF9C
:104B3000002807D1502080F31188BFF34F8FBFF3B7
:104B40006F8FFEE705E096F8240010F0FE0086F86F
:104B500024003000316A884773BD000080B5684684
:104B600000F03EF8009900F003F800F07DF8F6E759
:104B70007CB505000C00FFF782FB684600F042F8A8
:104B800006000098002828D1002C08D1AE4206D398
:104B9000FFF77BFB31002800FFF7AAFF1FE0002C86
:104BA00007D0AB4800680068002801D1012400E06C
:104BB00000242200AD1B2900A148006800F02AFD56
:104BC000FFF763FB00280AD15FF08050A14908601D
:104BD000BFF34F8FBFF36F8F01E0FFF756FB73BD3D
:104BE0009A4A11680968002901D1012100E00021D9
:104BF00001600068002803D11068C068006800E008
:104C00000020704770B50400FFF7B1FB0500924E1D
:104C10003068854204D200F0B2F80120206001E043
:104C2000002020603560280070BD10B50024416070
:104C300000618A420BD3D21A81698A4201D30124CE
:104C400010E0011D8248006801F068F80AE09A420D
:104C500003D2994201D3012404E0011D7B4800687E
:104C600001F05CF8200010BD18B585B0FFE7002208
:104C700001A97348006800F006FB00287DD0019868
:104C80000028F4D4039C6069002802D0201D01F0A4
:104C900060F804A8FFF7B6FF0200019800280ED0C4
:104CA00002280CD00BD304283AD032D3062806D0E1
:104CB00053D308282DD002D3092831D05CE094F8D2
:104CC000240050F0010084F82400029B0299A0699E
:104CD00041182000FFF7A9FF0028C8D02000216A52
:104CE000884794F824004007C1D500200090002395
:104CF000029AA069821800212000FFF7C7FE002851
:104D0000B5D1502080F31188BFF34F8FBFF36F8F61
:104D1000FEE794F8240010F0FE0084F82400A6E7D3
:104D200094F8240050F0010084F824000298A06157
:104D3000A069002809D013001000A1698A18110089
:104D400002002000FFF771FF91E7502080F31188E7
:104D5000BFF34F8FBFF36F8FFEE794F824008007F7
:104D600003D4200000F00EFF05E094F8240010F0BA
:104D7000FE0084F824007AE779E706B010BD7CB520
:104D800005E070603661311D206800F0C7FF2F4CD0
:104D900020680068002826D02068C0680568206860
:104DA000C068C668301D00F0D4FF3000316A884703
:104DB00096F824004007EAD5B06940198542E0D34F
:104DC0000020009000232A0000213000FFF75EFE43
:104DD000002800D0DBE7502080F31188BFF34F8F0D
:104DE000BFF36F8FFEE7206819490A6822600860E8
:104DF00073BD7CB501F050F8114C206800281BD120
:104E0000164D280000F06CFF154E300000F068FFD2
:104E10000E4805600E48066000200090114B124AB3
:104E20000C210A2000F06DF820602068002803D0D3
:104E30000E49206800F0D9FB01F048F873BD00006E
:104E4000685D00206C5D002040770008605D0020F8
:104E5000645D002004ED00E0705D0020905C0020A7
:104E6000A45C00201C5B00206459002048770008E7
:104E700038B504000D00002C07D1502080F31188B4
:104E8000BFF34F8FBFF36F8FFEE701F005F8216886
:104E9000E26B206C424301EB0200A0600020A063A3
:104EA000206860602168E26B521E206C424301EB77
:104EB0000200E0605FF0FF3084F8440084F84500B1
:104EC000002D12D12069002817D014F11000FFF72F
:104ED00035FB002811D05FF08050DFF80415086022
:104EE000BFF34F8FBFF36F8F07E014F1100000F096
:104EF000F7FE14F1240000F0F3FE00F0E7FF0120BC
:104F000032BD38B51C00002807D1502080F311882D
:104F1000BFF34F8FBFF36F8FFEE7002C07D15020F8
:104F200080F31188BFF34F8FBFF36F8FFEE7002A26
:104F300001D0002901D0012300E00023DBB2002BC7
:104F400007D1502080F31188BFF34F8FBFF36F8FCD
:104F5000FEE7002A01D1002901D1012300E000234E
:104F6000DBB2002B07D1502080F31188BFF34F8FA5
:104F7000BFF36F8FFEE748230093009B482B07D0B9
:104F8000502080F31188BFF34F8FBFF36F8FFEE780
:104F9000009B002C07D0049B012584F84650009408
:104FA000DBB200F027F8200032BDF8B505000E0096
:104FB0001700002D07D1502080F31188BFF34F8FC9
:104FC000BFF36F8FFEE706FB05F0483000F04CFDA5
:104FD0000400002C0CD0200010F14802002084F8BE
:104FE000460000943B00DBB23100280000F002F8DC
:104FF0002000F2BD80B5029B002901D11B6000E0BA
:105000001A60D863196401211800FFF731FF01BD50
:10501000F7B505000E001F000024002D07D1502019
:1050200080F31188BFF34F8FBFF36F8FFEE7002E21
:1050300002D1286C002801D1012000E00020C0B27C
:10504000002807D1502080F31188BFF34F8FBFF3A2
:105050006F8FFEE7022F02D1E86B012801D10120FA
:1050600000E00020C0B2002807D1502080F3118852
:10507000BFF34F8FBFF36F8FFEE7FFF78CFB002866
:1050800002D10298002801D1012000E00020C0B226
:10509000002838D1502080F31188BFF34F8FBFF321
:1050A0006F8FFEE7029800285CD0002C03D1684681
:1050B000FFF781FA012400F009FFFFF7E0F800F0A4
:1050C000EBFE95F9440010F1010F02D1002085F8A4
:1050D000440095F9450010F1010F02D1002085F838
:1050E000450000F0F3FE02A96846FFF779FA0028B0
:1050F00052D1280000F06AFA002837D1280000F0C9
:1051000020FAFFF7C2F800F0C7FEA86BE96B8842EF
:1051100001D3022FC6D13A003100280000F0B9F9BE
:10512000696A00290FD015F12400FFF707FA00285B
:1051300014D05FF08050DFF8A8120860BFF34F8FE3
:10514000BFF36F8F0AE0002808D05FF08050DFF8CF
:1051500090120860BFF34F8FBFF36F8F00F0B6FE61
:1051600001201FE000F0B2FE00201BE0029915F1C3
:105170001000FFF7B0F9280000F0E3F9FFF785F819
:105180000028C0D15FF08050DFF854120860BFF3F0
:105190004F8FBFF36F8FB6E7280000F0D2F9FFF70B
:1051A00074F80020FEBD2DE9F84305000E00140040
:1051B0009846002D07D1502080F31188BFF34F8F00
:1051C000BFF36F8FFEE7002E02D1286C002801D1BB
:1051D000012000E00020C0B2002807D1502080F359
:1051E0001188BFF34F8FBFF36F8FFEE7B8F1020F47
:1051F00002D1E86B012801D1012000E00020C0B2FB
:10520000002807D1502080F31188BFF34F8FBFF3E0
:105210006F8FFEE700F084FEEFF31187502080F3DC
:105220001188BFF34F8FBFF36F8FA86BE96B884274
:1052300002D3B8F1020F21D195F94590A86B4246EF
:105240003100280000F025F948465FF0FF3140B2F8
:1052500088420DD1686A002809D015F12400FFF7B3
:105260006DF9002803D0002C01D00120206003E05C
:1052700019F1010985F84590012000E0002087F32D
:105280001188BDE8F283F7B506000F000024002E58
:1052900007D1502080F31188BFF34F8FBFF36F8F7A
:1052A000FEE7002F02D1306C002801D1012000E080
:1052B0000020C0B2002807D1502080F31188BFF32E
:1052C0004F8FBFF36F8FFEE7FFF765FA002802D11B
:1052D0000298002801D1012000E00020C0B200287F
:1052E0000CD1502080F31188BFF34F8FBFF36F8F25
:1052F000FEE7300000F025F9FEF7C7FF00F0CCFD17
:10530000B56B002D06D1029800281FD100F0DEFDFC
:10531000002064E03900300000F0FEF86D1EB56337
:10532000306900280ED016F11000FFF707F90028A9
:1053300008D05FF08050DFF8A8100860BFF34F8FEF
:10534000BFF36F8F00F0C2FD012048E0002C03D1B5
:105350006846FFF730F9012400F0B8FDFEF78FFF33
:1053600000F09AFD96F9440010F1010F02D10020DF
:1053700086F8440096F9450010F1010F02D1002093
:1053800086F8450000F0A2FD02A96846FFF728F95B
:10539000002819D1300000F00BF90028A9D002999B
:1053A00016F12400FFF797F8300000F0CAF8FEF776
:1053B0006CFF0028A2D15FF0805009490860BFF35C
:1053C0004F8FBFF36F8F99E7300000F0BAF8FEF708
:1053D0005CFF300000F0ECF800288FD00020FEBD0C
:1053E00004ED00E02DE9F84305000E001400002D47
:1053F00007D1502080F31188BFF34F8FBFF36F8F19
:10540000FEE7002E02D1286C002801D1012000E027
:105410000020C0B2002807D1502080F31188BFF3CC
:105420004F8FBFF36F8FFEE700F07AFDEFF3118827
:10543000502080F31188BFF34F8FBFF36F8FAF6B96
:10544000002F21D095F944903100280000F064F835
:105450007F1EAF6348465FF0FF3140B288420DD1F6
:10546000286900280ED015F11000FFF767F8002812
:1054700008D0002C06D00120206003E019F10109BA
:1054800085F84490012000E0002088F31188BDE8F1
:10549000F2832DE9F041060015000027B46B306C53
:1054A000002809D13068002831D1B068FFF786F9AB
:1054B00007000020B0602AE0002D0FD1326C756823
:1054C0002800FBF7F3FF7068316C08447060706867
:1054D000B16888421BD33068706018E0326CD6F82F
:1054E0000C804046FBF7E2FFF068316C494208440B
:1054F000F060F0683168884204D2B068316C49428B
:105500000844F060022D02D1002C00D0641E641CFF
:10551000B4633800BDE8F08110B50C00016C0029BF
:105520000ED0C168026C1144C160C16882689142AA
:1055300001D30168C160026CC1682000FBF7B6FFAF
:1055400010BD70B5040000F0A7FC94F9455008E0C8
:1055500014F12400FEF7F2FF002801D0FFF784F8D1
:105560006D1E280040B2012802DB606A0028EFD1DE
:105570005FF0FF3584F8455000F0A8FC00F08CFC8B
:1055800094F9446008E014F11000FEF7D7FF0028FA
:1055900001D0FFF769F8761E300040B2012802DB27
:1055A00020690028EFD184F8445000F08FFC70BDD2
:1055B00010B5040000F070FCA06B002801D101249C
:1055C00000E0002400F082FC200010BD10B50400B3
:1055D00000F062FCA06BE16B884201D1012400E085
:1055E000002400F073FC200010BD10B4002300E084
:1055F0005B1C082B09D2064C54F83320002AF7D143
:1056000044F8331004EBC301486010BC704700003D
:10561000EC5B002070B504000D00160000F03CFCAF
:1056200094F9440010F1010F02D1002084F84400E5
:1056300094F9450010F1010F02D1002084F84500D3
:1056400000F044FCA06B002805D13200290014F1C1
:105650002400FEF757FF2000FFF773FF70BD000026
:1056600070B50400A56D00F0F9F9060094F8350056
:10567000022806D080206065002084F834000120D4
:105680003BE02068006830F0160021680860206860
:10569000406930F0800021684861206C002802D108
:1056A000A06C002805D02068006830F00800216850
:1056B0000860206800684008400021680860206891
:1056C0000068C0070ED500F0C9F9801B0628F6D384
:1056D00020206065002084F83400032084F8350021
:1056E00003200AE03F21E06D8140A960002084F89A
:1056F0003400012084F83500002070BD90F835108A
:10570000022903D080214165012009E0052180F8AC
:1057100035100168096849084900006801600020E7
:1057200070477047704770472DE9F04104000E0044
:10573000002C01D1012092E0634D286810F0070091
:10574000B04207D22E70286810F00700B04201D096
:10575000012084E02078800716D52078400704D502
:105760005A48016851F4E05101602078000704D5DF
:105770005648016851F46041016054490A6832F0AA
:10578000F002A06802430A602078C00735D560683F
:10579000012805D14E480068800313D401205EE043
:1057A0006068022802D06068032805D14848006874
:1057B000800107D4012052E045480068800701D4E9
:1057C00001204CE0414F3968890889006068014335
:1057D000396000F043F98046386810F00C006168C9
:1057E000B0EB810F09D000F039F9B0EB080041F2BD
:1057F00089318842F0D3032031E0286810F0070097
:10580000864207D22E70286810F00700B04201D0FF
:10581000012024E02078400706D52C490A6832F49C
:10582000E052E06802430A602078000707D5274865
:10583000016831F46041226951EAC201016000F05F
:1058400051F82449214A1268C2F30312895CC84006
:10585000214908602148006800F0D2FC0020BDE822
:10586000F0811D480068704780B5FFF7FAFF1C49BA
:10587000164A1268C2F38222895CC84002BD80B514
:10588000FFF7EFFF1649114A1268C2F34232895CF2
:10589000C84002BD0F2202600C4A136813F00303D4
:1058A0004360136813F0F0038360136813F4E0534C
:1058B000C3601268D20812F4E05202610248006824
:1058C00010F0070008607047003C024008380240B2
:1058D000003802407C750008880000208400002009
:1058E0003077000810B50020002000200020194863
:1058F000006810F00C00002804D0042804D0082808
:1059000004D025E0144824E0144822E0144C226816
:1059100012F03F022068400209D52068C0F38810C9
:105920000E49A1FB00010023FBF7D6FB08E020682D
:10593000C0F388100849A1FB00010023FBF7CCFB52
:105940002168C1F30141491C4900B0FBF1F000E0BE
:10595000014810BD083802400024F40000127A000B
:105960000438024080B500F08DFC00F010F800F023
:10597000A3FCFDF7E0FEFDF7FAFE002240213048CF
:10598000FDF75AF900F033FBFDF790F9FEE780B51B
:1059900092B006A8302100F05DF801A8142100F0B3
:1059A00059F8002000902748016851F080510160AB
:1059B000006810F08050009000980020009022486D
:1059C000016851F480410160006810F4804000904B
:1059D0000098012006905FF48030079002200C9020
:1059E0005FF480000D9004200E9084200F90022020
:1059F00010900420119006A800F010FD002801D09E
:105A000000F026F80F200190022002900020039061
:105A10004FF4A05004904FF480500590042101A849
:105A2000FFF782FE002801D000F012F813B000BD8D
:105A300080B500680549884201D100F0D1FE01BD62
:105A40000010024040380240007000400000014059
:105A500072B6FEE7002200F0CFBE000001480068E9
:105A6000704700BF205D00202DE9F84304000025A9
:105A7000FEF705FCDFF84492D9F80000002801D1B8
:105A800000F0BDF88E4F386804426AD1002C15D062
:105A90008C480068041914F0070F0FD014F10800A7
:105AA00014F00704041B14F0070F07D0502080F3F4
:105AB0001188BFF34F8FBFF36F8FFEE7002C50D0DC
:105AC000DFF80482D8F80000A0424AD37F480100E2
:105AD000066801E0310036687068A04202D2306882
